:020000040000FA
:0410000010EF08F0F5
:021004000000EA
:04100800E4EF08F019
:0410180000EF09F0EC
:101020001EEC08F038EC08F041EC08F04BEC08F04E
:1010300052EC08F0D58EBA84F28EFFD7800E9B6EEC
:10104000700ED36E100ED26E806AFF0E926E000E7E
:10105000986E816A000E936E826A946A60966286C8
:10106000056A106A066A116A096A076A086A120044
:10107000410ED56ED66A200EF26E000EBA6EBC6AB4
:101080001200000EC16E010EC26E360EC06EF28CE2
:101090009E9C9D8C1200FF0EBB6E0F0E976E800EF5
:1010A000906E120000EE20F0206A216A226A236A04
:1010B000246A256A266A276A286A10EE30F0280E0C
:1010C000306E230E316E140E326E000E336EF70E3C
:1010D000346E000E356E140E366E230E376E280EEB
:1010E000386E1200ED50E602F4500526000E102274
:1010F000200EE96072EF08F000EE28F080EF08F0B3
:10110000ED50E602F4500526000E1022380EE16480
:1011100080EF08F0C1EC08F000EE20F090EF08F04E
:10112000290EEE02F4500626000E1122280EE96464
:1011300090EF08F0C1EC08F09EEF08F00650055E55
:101140001150105AAAEC08F0000E1064BAEF08F023
:10115000B3EF08F0D8A81200000E096E106A056AF5
:10116000116A066A1200FF0E096E106A056A116A9A
:10117000066A120005C009F0106A056A116A066A5B
:101180001200230EE96E10EE30F01200EFCF08F0DF
:1011900007C0EDFF08C007F0200EE960C6EF08F0B9
:1011A00000EE28F0D4EF08F0EFCF08F007C0EDFF15
:1011B00008C007F0240EE960D4EF08F0076A086A57
:1011C0001200FF0E096E12009EAC13D0C292C1EC49
:1011D00008F0C4CF07F0C6EC08F072EC08F05E0E21
:1011E0000926D8B0E1EC08F00950906E096A9E9C7F
:1011F0001000F2A41000050ED66EC282F294100008
:0412000000001000DA
:020000040030CA
:010005009367
:00000001FF
